:100000000C942A000C9447000C9447000C94470071
:100010000C9447000C9447000C9447000C948813F0
:100020000C9447000C9455130C9447000C94470013
:100030000C9447000C9447000C9447000C94470024
:100040000C9447000C9447000C9447000C94470014
:100050000C94470011241FBECFE5D8E0DEBFCDBF12
:1000600010E0A0E6B0E0EEE2FCE202C005900D92E6
:10007000A03EB107D9F710E0A0EEB0E001C01D929C
:10008000A63EB107E1F70E94D9080C9415160C940E
:100090000000EF92FF920F931F937B018C0120E0F1
:1000A00030E040E05FE40E94490388238CF0C801FF
:1000B000B70120E030E040E05FE40E94C1010E940F
:1000C000A9039B01AC01205030404040504806C07D
:1000D000C801B7010E94A9039B01AC01B901CA0183
:1000E0001F910F91FF90EF900895A0E0B0E0EBE733
:1000F000F0E00C949915DC012B01FA019C919230EF
:1001000008F439C1EB018881823008F433C194309E
:1001100069F4843009F02FC111969C91119789815F
:10012000981709F428C1AAECB0E025C1843009F47D
:1001300021C18230A9F4923009F01DC19A01AD01AC
:1001400088E0EA010990AE01E90109929E0181501F
:10015000C1F7E201898111969C918923818308C1AD
:10016000923009F407C112962D903C901397EB0141
:100170008A819B811496AD90BD90CD90DC901797AD
:10018000EC80FD800E811F819101281B390BB90184
:1001900037FF04C066277727621B730B6032710537
:1001A0000CF061C0121613066CF537014801062EDB
:1001B00004C096948794779467940A94D2F721E0C8
:1001C00030E040E050E004C0220F331F441F551FB1
:1001D0006A95D2F721503040404050402E213F21B7
:1001E00040235123211531054105510521F021E01E
:1001F00030E040E050E079018A01E628F72808293C
:1002000019293CC0232BD1F1260E371E350146019A
:10021000062E04C096948794779467940A94D2F734
:1002200021E030E040E050E004C0220F331F441FC3
:10023000551F6A95D2F721503040404050402A2146
:100240003B214C215D21211531054105510521F04E
:1002500021E030E040E050E059016A01A628B728CB
:10026000C828D9280BC0821593052CF01C01AA249C
:10027000BB24650103C0EE24FF24870111969C91E5
:10028000D20111968C91981709F445C0992339F041
:10029000A80197012A193B094C095D0906C0A6016E
:1002A00095012E193F09400B510B57FD08C01182D3
:1002B0003382228224833583468357831DC081E0A5
:1002C00081833382228288279927DC01821B930B4A
:1002D000A40BB50B84839583A683B7830DC0220F2F
:1002E000331F441F551F24833583468357838281E0
:1002F000938101979383828324813581468157813D
:10030000DA01C9010197A109B1098F5F9F4FAF4F72
:10031000BF4328F30BC0918333822282EA0CFB1C7B
:100320000C1D1D1DE482F5820683178383E0808304
:10033000248135814681578157FF1AC0C901AA27F8
:1003400097FDA095BA2F81709070A070B0705695EF
:10035000479537952795822B932BA42BB52B848318
:100360009583A683B7838281938101969383828349
:10037000DF0101C0D201CD01CDB7DEB7E2E10C94BF
:10038000B515A0E2B0E0E7ECF1E00C94A5156983A7
:100390007A838B839C832D833E834F835887E9E048
:1003A000EE2EF12CEC0EFD1ECE010196B7010E943F
:1003B000D2048E010F5E1F4FCE010596B8010E9438
:1003C000D2048A8991E089278A8BC701B801AE01DE
:1003D000475E5F4F0E9475000E94FD03A096E6E015
:1003E0000C94C115A0E2B0E0E8EFF1E00C94A51583
:1003F00069837A838B839C832D833E834F835887C5
:10040000F9E0EF2EF12CEC0EFD1ECE010196B701A6
:100410000E94D2048E010F5E1F4FCE010596B801D7
:100420000E94D204C701B801AE01475E5F4F0E942F
:1004300075000E94FD03A096E6E00C94C115A0E2B1
:10044000B0E0E5E2F2E00C94991569837A838B833E
:100450009C832D833E834F835887CE010196BE0136
:10046000675F7F4F0E94D204CE010596BE016F5E8A
:100470007F4F0E94D2049985923088F0898982301A
:10048000C8F0943019F4823051F404C0843029F457
:10049000923081F48AEC90E0C6C0923049F420E0BA
:1004A0009A858A89981321E02A87CE010996BBC0D4
:1004B000823049F420E09A858A89981321E02A8BBA
:1004C000CE014196B0C02D843E844F8458886D88FB
:1004D0007E888F88988CEE24FF248701AA24BB2471
:1004E000650140E050E060E070E0E0E0F0E0C10174
:1004F00081709070892BE9F0E60CF71C081D191D1E
:100500009A01AB012A0D3B1D4C1D5D1D80E090E062
:10051000A0E0B0E0E614F7040805190520F481E036
:1005200090E0A0E0B0E0BA01A901480F591F6A1F8E
:100530007B1FAA0CBB1CCC1CDD1C97FE08C081E0F5
:1005400090E0A0E0B0E0A82AB92ACA2ADB2A3196B6
:10055000E032F10549F0660C771C881C991C569412
:10056000479437942794C3CFFA85EA892B893C892D
:100570008B859C85280F391F2E5F3F4F17C0CA01FE
:1005800081709070892B61F016950795F794E79428
:1005900080E090E0A0E0B0E8E82AF92A0A2B1B2BC3
:1005A00076956795579547952F5F3F4F77FDE7CF36
:1005B0000CC0440F551F661F771F17FD4160EE0CDE
:1005C000FF1C001F111F21503040403090E05907A0
:1005D00090E0690790E4790760F32B8F3C8FDB0193
:1005E000CA018F779070A070B07080349105A1051A
:1005F000B10561F447FD0AC0E114F10401051105DC
:1006000029F0405C5F4F6F4F7F4F40781A8EFE1786
:1006100011F081E08A8F4D8F5E8F6F8F78A383E01A
:10062000898FCE0149960E94FD03A096E2E10C94C9
:10063000B515A8E1B0E0EFE1F3E00C94A5156983EE
:100640007A838B839C832D833E834F83588789E0F5
:10065000E82EF12CEC0EFD1ECE010196B7010E9492
:10066000D2048E010F5E1F4FCE010596B8010E9485
:10067000D2048985823040F08989823028F0C70110
:10068000B8010E944A0501C08FEF6896E6E00C941D
:10069000C115A8E1B0E0EFE4F3E00C94A51569837F
:1006A0007A838B839C832D833E834F83588789E095
:1006B000E82EF12CEC0EFD1ECE010196B7010E9432
:1006C000D2048E010F5E1F4FCE010596B8010E9425
:1006D000D2048985823040F08989823028F0C701B0
:1006E000B8010E944A0501C08FEF6896E6E00C94BD
:1006F000C115A8E1B0E0EFE7F3E00C94A51569831C
:100700007A838B839C832D833E834F83588789E034
:10071000E82EF12CEC0EFD1ECE010196B7010E94D1
:10072000D2048E010F5E1F4FCE010596B8010E94C4
:10073000D2048985823040F08989823028F0C7014F
:10074000B8010E944A0501C081E06896E6E00C9479
:10075000C115ACE0B0E0EFEAF3E00C94A9156983B1
:100760007A838B839C83CE010196BE016B5F7F4FA2
:100770000E94D2048D81823061F1823050F1843048
:1007800021F48E81882351F12EC02F81388537FDC9
:1007900020C06E812F3131051CF06623F9F023C093
:1007A0008EE190E0821B930B29853A854B855C8511
:1007B00004C056954795379527958A95D2F76623B5
:1007C000B1F050954095309521953F4F4F4F5F4F79
:1007D0000EC020E030E040E050E009C02FEF3FEFD6
:1007E0004FEF5FE704C020E030E040E050E8B9019F
:1007F000CA012C96E2E00C94C515DF92EF92FF92AD
:100800000F931F93FC01E480F58006811781D1804E
:100810008081823048F480E090E0A0E1B0E0E82AF6
:10082000F92A0A2B1B2BA5C0843009F49FC0823003
:1008300021F4EE24FF24870105C0E114F104010531
:10084000110519F4E0E0F0E096C0628173819FEF3A
:10085000623879070CF05BC022E83FEF261B370BAC
:100860002A3131052CF020E030E040E050E02AC091
:10087000B801A701022E04C0769567955795479554
:100880000A94D2F781E090E0A0E0B0E004C0880FC5
:10089000991FAA1FBB1F2A95D2F70197A109B10979
:1008A0008E219F21A023B1230097A105B10521F03E
:1008B00081E090E0A0E0B0E09A01AB01282B392B59
:1008C0004A2B5B2BDA01C9018F779070A070B07052
:1008D00080349105A105B10539F427FF09C0205CDA
:1008E0003F4F4F4F5F4F04C0215C3F4F4F4F5F4F13
:1008F000E0E0F0E02030A0E03A07A0E04A07A0E402
:100900005A0710F0E1E0F0E079018A0127C0603871
:10091000710564F5FB01E158FF4FD801C7018F77DE
:100920009070A070B07080349105A105B10539F4C4
:10093000E7FE0DC080E490E0A0E0B0E004C08FE3EB
:1009400090E0A0E0B0E0E80EF91E0A1F1B1F17FFA1
:1009500005C016950795F794E794319687E01695AC
:100960000795F794E7948A95D1F705C0EE24FF2404
:100970008701EFEFF0E06E2F679566276795902F60
:100980009F77D794DD24D7948E2F8695492F462BB9
:10099000582F5D29B701CA011F910F91FF90EF9069
:1009A000DF900895FC01DB01408151812281622F9B
:1009B0006F7770E0221F2227221F9381892F880FD3
:1009C000822B282F30E0991F9927991F11969C930D
:1009D000119721153105A9F54115510561057105DD
:1009E00011F482E037C082E89FEF13969C938E93B8
:1009F00012979A01AB0167E0220F331F441F551F66
:100A00006A95D1F783E08C930DC0220F331F441FEA
:100A1000551F12968D919C911397019713969C9355
:100A20008E931297203080E0380780E0480780E4FA
:100A3000580758F314962D933D934D935C93179755
:100A400008952F3F310579F4411551056105710570
:100A500019F484E08C93089564FF03C081E08C93C3
:100A600012C01C9210C02F57304013963C932E9307
:100A7000129783E08C9387E0440F551F661F771F02
:100A80008A95D1F7706414964D935D936D937C9322
:100A9000179708951F93DC01FB019C91923008F495
:100AA00047C08081823008F443C0943051F41196DD
:100AB0001C91843099F58181682F70E0611B710968
:100AC0003FC0843021F0923031F48230B9F181811D
:100AD000882389F12DC011961C9111978230F1F075
:100AE00081811817D9F412962D913C911397828128
:100AF00093818217930794F028173907BCF0149656
:100B00008D919D910D90BC91A02D248135814681C0
:100B10005781281739074A075B0718F4112341F05A
:100B20000AC082179307A407B50740F4112319F0F0
:100B300061E070E005C06FEF7FEF02C060E070E041
:100B4000CB011F910895DF93CF93CDB7DEB7AC975C
:100B50000FB6F894DEBF0FBECDBF8FEF8CA71BA6DC
:100B60000E944B1380E690E00E94A41281E060E0B6
:100B70000E94CD1286E40E94E5141BA685C00E9447
:100B80009F0C8CA78CA58A3038F48AE20E94B5109D
:100B90008CA50E94E51403C08BA581508BA780E033
:100BA00090E0AAEFB3E48FA398A7A9A7BAA76FA173
:100BB00078A589A59AA520E030E04AEF54E40E9488
:100BC0001F02DC01CB018BA39CA3ADA3BEA36BA131
:100BD0007CA18DA19EA120E030E040E85FE30E946F
:100BE000790388232CF481E090E09AA389A33FC085
:100BF0006BA17CA18DA19EA120E03FEF4FE757E4C0
:100C00000E94190318164CF56FA178A589A59AA51D
:100C100020E030E040E251E40E941F02DC01CB0101
:100C2000BC01CD010E944900DC01CB019AA389A33C
:100C30000FC088EC90E098A38F8F8F8D98A10197BB
:100C4000F1F798A38F8F89A19AA101979AA389A3FD
:100C500089A19AA1009769F714C06BA17CA18DA10D
:100C60009EA10E944900DC01CB019AA389A389A11E
:100C70009AA19E8F8D8F8D8D9E8D0197F1F79E8FFE
:100C80008D8F8BA58F5F8BA78BA5853008F477CFD1
:100C90000E949F0C8CA78CA58D3389F40E944B1366
:100CA00080E790E00E94A41281E060E00E94CD12F3
:100CB00081E890E00E94A4128CA50E94E51481E0D6
:100CC0006BE00E94CD121BA6F8C00E949F0C8CA75F
:100CD0008CA58A3008F079C08AE20E94B5108CA5F4
:100CE0000E94E51480E090E0A0E2B1E4898F9A8F41
:100CF000AB8FBC8F698D7A8D8B8D9C8D20E030E021
:100D00004AEF54E40E941F02DC01CB018D8B9E8BC5
:100D1000AF8BB88F6D897E898F89988D20E030E008
:100D200040E85FE30E94790388232CF481E090E09F
:100D30009C8B8B8B3FC06D897E898F89988D20E03D
:100D40003FEF4FE757E40E94190318164CF5698DE1
:100D50007A8D8B8D9C8D20E030E040E251E40E9442
:100D60001F02DC01CB01BC01CD010E944900DC0166
:100D7000CB019C8B8B8B0FC088EC90E09A8B898B7E
:100D800089899A890197F1F79A8B898B8B899C893C
:100D900001979C8B8B8B8B899C89009769F718C076
:100DA0006D897E898F89988D0E944900DC01CB0175
:100DB0009C8B8B8B8B899C89988B8F878F8598894F
:100DC0000197F1F7988B8F8703C08BA581508BA774
:100DD00080E090E0AAEFB3E48B879C87AD87BE8765
:100DE0006B857C858D859E8520E030E04AEF54E45C
:100DF0000E941F02DC01CB018F839887A987BA87E5
:100E00006F81788589859A8520E030E040E85FE34E
:100E10000E94790388232CF481E090E09E838D83E7
:100E20003FC06F81788589859A8520E03FEF4FE745
:100E300057E40E94190318164CF56B857C858D8547
:100E40009E8520E030E040E251E40E941F02DC0178
:100E5000CB01BC01CD010E944900DC01CB019E8386
:100E60008D830FC088EC90E09C838B838B819C8169
:100E70000197F1F79C838B838D819E8101979E83DF
:100E80008D838D819E81009769F714C06F8178856D
:100E900089859A850E944900DC01CB019E838D8360
:100EA0008D819E819A83898389819A810197F1F747
:100EB0009A8389838BA58F5F8BA78BA5853008F4D8
:100EC00004CF0E949F0C8CA78CA58D3319F48DE361
:100ED0000E94E5140E94FC148093E1008091E100DF
:100EE000882319F00E944B1304C00E944B130E94E8
:100EF000A305AC960FB6F894DEBF0FBECDBFCF9161
:100F0000DF910895DF93CF93CDB7DEB70E944B13E7
:100F100082E40E94E5148CE890E00E94A4121092F2
:100F2000E0008091E0008D33E0F31092E000CF917B
:100F3000DF910895DF93CF93CDB7DEB760970FB6FB
:100F4000F894DEBF0FBECDBF188A8FEF8F870E9447
:100F50004B1383E40E94E51480E690E00E94A41203
:100F600081E060E00E94CD12188A85C00E949F0C2B
:100F70008F878F858A3038F48AE20E94B5108F857A
:100F80000E94E51403C088898150888B80E090E03E
:100F9000AAEFB3E48B879C87AD87BE876B857C8582
:100FA0008D859E8520E030E04AEF54E40E941F02C8
:100FB000DC01CB018F839887A987BA876F817885F9
:100FC00089859A8520E030E040E85FE30E9479035C
:100FD00088232CF481E090E09E838D833FC06F8155
:100FE000788589859A8520E03FEF4FE757E40E9496
:100FF000190318164CF56B857C858D859E8520E040
:1010000030E040E251E40E941F02DC01CB01BC0150
:10101000CD010E944900DC01CB019E838D830FC06E
:1010200088EC90E09C838B838B819C810197F1F706
:101030009C838B838D819E8101979E838D838D817F
:101040009E81009769F714C06F81788589859A859C
:101050000E944900DC01CB019E838D838D819E819E
:101060009A83898389819A810197F1F79A83898389
:1010700088898F5F888B8889853008F477CF0E94B4
:101080009F0C8F878F858D3311F40E944B130E9424
:10109000FC148093E30060960FB6F894DEBF0FBE99
:1010A000CDBFCF91DF910895DF93CF93CDB7DEB75A
:1010B0000E949A078091E300882399F48091E200CE
:1010C0008F5F8093E2008091E200833039F40E94C8
:1010D00082070E944B131092E20007C00E9454083E
:1010E00004C01092E2000E94A305CF91DF91089501
:1010F000DF93CF93CDB7DEB70E949A078091E300CC
:10110000882399F48091E2008F5F8093E2008091C0
:10111000E200833039F40E9482070E944B13109240
:10112000E20038C00E94540835C01092E2008FE4FB
:101130000E94E5140E944B1322E930E080E060E059
:10114000A9010E940F132AE930E081E060E0A901C3
:101150000E940F131092E0008091E0008031E0F3D4
:101160008091E0008331E0F30E944B1322E930E0EC
:1011700080E060E0A9010E940F1324EA30E081E0E2
:1011800060E0A9010E940F138091E0008232E0F339
:101190001092E000CF91DF910895DF93CF93CDB708
:1011A000DEB78091E0008F5F8093E000CF91DF9108
:1011B0000895DF93CF93CDB7DEB76A970FB6F89453
:1011C000DEBF0FBECDBF9E012E5F3F4F3A8B298BF6
:1011D00089ED90E09C8B8B8B96E09D8BEB89FC8955
:1011E00000802B893C892F5F3F4F3C8B2B8BE989FB
:1011F000FA89008229893A892F5F3F4F3A8B298BE0
:101200003D8931503D8B8D89882341F7CE0102966F
:101210000E94BB13FE013896FF8BEE8B22ED30E06F
:10122000398F288F37E03A8FE88DF98D0080288D2F
:10123000398D2F5F3F4F398F288FEE89FF890082CC
:101240002E893F892F5F3F4F3F8B2E8B3A8D315038
:101250003A8F8A8D882341F7CE0108960E94641444
:101260008DEC98E00E9452140E942A0E0E94A30561
:101270000E944B138CEA90E00E94A41281E060E08F
:101280000E94CD128AEB90E00E94A4120E949F0C53
:1012900089838981E82FF0E0F88BEF872F853889E3
:1012A0002B32310531F08F8598898D32910521F0EF
:1012B000DFCF0E947808DCCF1092E2000E94540831
:1012C000D7CFDF93CF9300D000D00F92CDB7DEB74A
:1012D00089836A834B838A81883008F0D5C08981ED
:1012E000843008F0D1C08981282F30E03D832C83E1
:1012F0008C819D818130910509F443C02C813D8111
:10130000223031052CF48C819D81009771F0BCC096
:101310002C813D812230310509F45FC08C819D8193
:101320008330910509F485C0AFC08B818130A1F471
:10133000AAE3B0E0EAE3F0E08081482F8A81282F19
:1013400030E081E090E0022E02C0880F991F0A94DD
:10135000E2F7842B8C9398C0AAE3B0E0EAE3F0E0D4
:101360008081482F8A81282F30E081E090E0022E92
:1013700002C0880F991F0A94E2F7809584238C930A
:1013800083C08B818130A1F4A7E3B0E0E7E3F0E014
:101390008081482F8A81282F30E081E090E0022E62
:1013A00002C0880F991F0A94E2F7842B8C936CC0BB
:1013B000A7E3B0E0E7E3F0E08081482F8A81282F9F
:1013C00030E081E090E0022E02C0880F991F0A945D
:1013D000E2F7809584238C9357C08B818130A1F4F0
:1013E000A4E3B0E0E4E3F0E08081482F8A81282F75
:1013F00030E081E090E0022E02C0880F991F0A942D
:10140000E2F7842B8C9340C0A4E3B0E0E4E3F0E087
:101410008081482F8A81282F30E081E090E0022EE1
:1014200002C0880F991F0A94E2F7809584238C9359
:101430002BC08B818130A1F4A1E3B0E0E1E3F0E0C7
:101440008081482F8A81282F30E081E090E0022EB1
:1014500002C0880F991F0A94E2F7842B8C9314C062
:10146000A1E3B0E0E1E3F0E08081482F8A81282FFA
:1014700030E081E090E0022E02C0880F991F0A94AC
:10148000E2F7809584238C930F900F900F900F902C
:101490000F90CF91DF910895DF93CF9300D000D0CC
:1014A0000F92CDB7DEB789836A834B838A818830F8
:1014B00008F0D5C08981843008F0D1C08981282FF7
:1014C00030E03D832C838C819D818130910509F42E
:1014D00043C02C813D81223031052CF48C819D81CB
:1014E000009771F0BCC02C813D812230310509F498
:1014F0005FC08C819D818330910509F485C0AFC0A8
:101500008B818130A1F4ABE3B0E0EBE3F0E08081CC
:10151000482F8A81282F30E081E090E0022E02C01F
:10152000880F991F0A94E2F7842B8C9398C0ABE341
:10153000B0E0EBE3F0E08081482F8A81282F30E093
:1015400081E090E0022E02C0880F991F0A94E2F712
:10155000809584238C9383C08B818130A1F4A8E390
:10156000B0E0E8E3F0E08081482F8A81282F30E066
:1015700081E090E0022E02C0880F991F0A94E2F7E2
:10158000842B8C936CC0A8E3B0E0E8E3F0E08081AA
:10159000482F8A81282F30E081E090E0022E02C09F
:1015A000880F991F0A94E2F7809584238C9357C083
:1015B0008B818130A1F4A5E3B0E0E5E3F0E0808128
:1015C000482F8A81282F30E081E090E0022E02C06F
:1015D000880F991F0A94E2F7842B8C9340C0A5E3EF
:1015E000B0E0E5E3F0E08081482F8A81282F30E0E9
:1015F00081E090E0022E02C0880F991F0A94E2F762
:10160000809584238C932BC08B818130A1F4A2E33D
:10161000B0E0E2E3F0E08081482F8A81282F30E0BB
:1016200081E090E0022E02C0880F991F0A94E2F731
:10163000842B8C9314C0A2E3B0E0E2E3F0E080815D
:10164000482F8A81282F30E081E090E0022E02C0EE
:10165000880F991F0A94E2F7809584238C930F904A
:101660000F900F900F900F90CF91DF910895DF931F
:10167000CF9300D000D00F92CDB7DEB78A836B83B3
:1016800019828B81883008F084C08A81843008F008
:1016900080C08A81282F30E03D832C834C815D817E
:1016A0004130510579F18C819D818230910534F46E
:1016B0002C813D812115310569F06BC04C815D8124
:1016C00042305105B9F18C819D818330910509F437
:1016D00049C05FC0E9E3F0E08081282F30E08B81D2
:1016E000882F90E0A90102C0559547958A95E2F7A9
:1016F000CA0181709070882319F081E0898349C004
:10170000198247C0E6E3F0E08081282F30E08B812A
:10171000882F90E0A90102C0559547958A95E2F778
:10172000CA0181709070882319F081E0898331C0EB
:1017300019822FC0E3E3F0E08081282F30E08B8115
:10174000882F90E0A90102C0559547958A95E2F748
:10175000CA0181709070882319F081E0898319C0D3
:10176000198217C0E0E3F0E08081282F30E08B8100
:10177000882F90E0A90102C0559547958A95E2F718
:10178000CA0181709070882319F081E0898301C0BB
:10179000198289810F900F900F900F900F90CF9129
:1017A000DF910895DF93CF9300D000D0CDB7DEB79F
:1017B00089836A838981843090F58981282F30E07C
:1017C0003C832B838B819C8181309105D1F02B81CF
:1017D0003C81223031052CF48B819C81009761F093
:1017E0001EC02B813C812230310581F08B819C8190
:1017F0008330910581F013C0EAE3F0E08A818083B1
:101800000EC0E7E3F0E08A81808309C0E4E3F0E002
:101810008A81808304C0E1E3F0E08A8180830F90B5
:101820000F900F900F90CF91DF910895DF93CF939A
:1018300000D000D0CDB7DEB789836A838981843038
:1018400090F58981282F30E03C832B838B819C810C
:1018500081309105D1F02B813C81223031052CF46F
:101860008B819C81009761F01EC02B813C812230CE
:10187000310581F08B819C818330910581F013C00B
:10188000EBE3F0E08A8180830EC0E8E3F0E08A8138
:10189000808309C0E5E3F0E08A81808304C0E2E34D
:1018A000F0E08A8180830F900F900F900F90CF917E
:1018B000DF910895DF93CF9300D000D0CDB7DEB78E
:1018C0008A8319828A81843090F58A81282F30E0BA
:1018D0003C832B838B819C8181309105D1F02B81BE
:1018E0003C81223031052CF48B819C81009761F082
:1018F0001EC02B813C812230310581F08B819C817F
:101900008330910581F013C0E9E3F0E080818983A1
:101910000EC0E6E3F0E08081898309C0E3E3F0E0F4
:101920008081898304C0E0E3F0E08081898389813C
:101930000F900F900F900F90CF91DF910895DF934C
:10194000CF93CDB7DEB760970FB6F894DEBF0FBE6A
:10195000CDBF82E060E040E00E94610982E061E08A
:1019600040E00E94610982E062E040E00E9461097B
:1019700082E063E040E00E94610982E064E040E0D0
:101980000E94610982E065E040E00E94610982E016
:1019900066E040E00E94610982E067E040E00E946A
:1019A00061091F86ABC082E06F8541E00E9461093A
:1019B00082E06F8540E00E944C0A188A22C0888924
:1019C000982F9C5F82E0692F0E94370B8823B1F427
:1019D0008F85882F90E0880F991F880F991F982F67
:1019E0008889890F8F5F0E94830D60960FB6F894E7
:1019F000DEBF0FBECDBFCF91DF91089588898F5F85
:101A0000888B88898430D8F282E06F8540E00E941C
:101A1000610980E090E0A0EAB0E48B879C87AD8705
:101A2000BE876B857C858D859E8520E030E04AEF02
:101A300054E40E941F02DC01CB018F839887A987A1
:101A4000BA876F81788589859A8520E030E040E803
:101A50005FE30E94790388232CF481E090E09E8369
:101A60008D833FC06F81788589859A8520E03FEF1F
:101A70004FE757E40E94190318164CF56B857C85D7
:101A80008D859E8520E030E040E251E40E941F02F7
:101A9000DC01CB01BC01CD010E944900DC01CB017E
:101AA0009E838D830FC088EC90E09C838B838B8119
:101AB0009C810197F1F79C838B838D819E81019797
:101AC0009E838D838D819E81009769F714C06F81FD
:101AD000788589859A850E944900DC01CB019E8327
:101AE0008D838D819E819A83898389819A810197D3
:101AF000F1F79A8389838F858F5F8F878F858430F5
:101B000008F451CF4ECFDF93CF9300D000D0CDB7A4
:101B1000DEB78A8319828A81282F30E03C832B83A9
:101B20008B819C818830910509F470C02B813C81A8
:101B3000293031055CF58B819C818430910509F455
:101B400059C02B813C81253031059CF48B819C81CF
:101B50008230910509F448C02B813C812330310546
:101B60000CF045C08B819C818130910509F439C00E
:101B700067C02B813C812630310509F441C08B813F
:101B80009C81873091050CF03EC037C02B813C8191
:101B90002C30310509F446C08B819C818D30910534
:101BA0005CF42B813C812A303105B1F18B819C8121
:101BB0008B309105A4F52DC02B813C812E30310551
:101BC000B9F18B819C818E3091057CF12B813C8118
:101BD0002F30310579F18B819C818031910569F13C
:101BE0002FC087E089832EC088E089832BC089E0DD
:101BF000898328C085E2898325C084E0898322C047
:101C000085E089831FC086E089831CC08AE28983BE
:101C100019C081E0898316C082E0898313C083E004
:101C2000898310C08DE289830DC08DE089830AC04D
:101C3000198208C08DE3898305C08BE2898302C0C5
:101C40008A81898389810F900F900F900F90CF9197
:101C5000DF910895DF93CF93CDB7DEB72E970FB600
:101C6000F894DEBF0FBECDBF81E060E041E00E948E
:101C7000610981E062E041E00E94610980E06FEF6C
:101C80000E94D20B80E090E0A0EAB1E48B879C87B1
:101C9000AD87BE876B857C858D859E8520E030E095
:101CA0004AEF54E40E941F02DC01CB018F83988726
:101CB000A987BA876F81788589859A8520E030E089
:101CC00040E85FE30E94790388232CF481E090E0F0
:101CD0009E838D833FC06F81788589859A8520E0BA
:101CE0003FEF4FE757E40E94190318164CF56B8538
:101CF0007C858D859E8520E030E040E251E40E94A5
:101D00001F02DC01CB01BC01CD010E944900DC01B6
:101D1000CB019E838D830FC088EC90E09C838B83E6
:101D20008B819C810197F1F79C838B838D819E81B0
:101D300001979E838D838D819E81009769F714C0E2
:101D40006F81788589859A850E944900DC01CB01E5
:101D50009E838D838D819E819A83898389819A81D7
:101D60000197F1F79A83898388E30E94C60E8CE07D
:101D70000E94C60E81E00E94C60E2E960FB6F89401
:101D8000DEBF0FBECDBFCF91DF910895DF93CF931C
:101D9000CDB7DEB7E9970FB6F894DEBF0FBECDBF63
:101DA00089AF81E060E040E00E944C0A80E090E072
:101DB000A0E8BFE38DAB9EABAFABB8AF6DA97EA97A
:101DC0008FA998AD20E030E04AEF54E40E941F0252
:101DD000DC01CB0189AB9AABABABBCAB69A97AA9EF
:101DE0008BA99CA920E030E040E85FE30E947903E2
:101DF00088232CF481E090E098AB8FA73FC069A9BD
:101E00007AA98BA99CA920E03FEF4FE757E40E94F5
:101E1000190318164CF56DA97EA98FA998AD20E07D
:101E200030E040E251E40E941F02DC01CB01BC0122
:101E3000CD010E944900DC01CB0198AB8FA70FC0F8
:101E400088EC90E09EA78DA78DA59EA50197F1F740
:101E50009EA78DA78FA598A9019798AB8FA78FA54F
:101E600098A9009769F714C069A97AA98BA99CA9B8
:101E70000E944900DC01CB0198AB8FA78FA598A9E0
:101E80009CA78BA78BA59CA50197F1F79CA78BA777
:101E900081E062E041E00E944C0A80E090E0A0E82E
:101EA000BFE38FA398A7A9A7BAA76FA178A589A513
:101EB0009AA520E030E04AEF54E40E941F02DC01C2
:101EC000CB018BA39CA3ADA3BEA36BA17CA18DA1D1
:101ED0009EA120E030E040E85FE30E947903882380
:101EE0002CF481E090E09AA389A33FC06BA17CA170
:101EF0008DA19EA120E03FEF4FE757E40E94190318
:101F000018164CF56FA178A589A59AA520E030E0B8
:101F100040E251E40E941F02DC01CB01BC01CD0173
:101F20000E944900DC01CB019AA389A30FC088EC71
:101F300090E098A38F8F8F8D98A10197F1F798A3C8
:101F40008F8F89A19AA101979AA389A389A19AA1A8
:101F5000009769F714C06BA17CA18DA19EA10E947E
:101F60004900DC01CB019AA389A389A19AA19E8F84
:101F70008D8F8D8D9E8D0197F1F79E8F8D8F80E0D7
:101F800069AD0E94160C80E090E0A0E8BFE3898F65
:101F90009A8FAB8FBC8F698D7A8D8B8D9C8D20E055
:101FA00030E04AEF54E40E941F02DC01CB018D8B2C
:101FB0009E8BAF8BB88F6D897E898F89988D20E03D
:101FC00030E040E85FE30E94790388232CF481E04D
:101FD00090E09C8B8B8B3FC06D897E898F89988D1B
:101FE00020E03FEF4FE757E40E94190318164CF525
:101FF000698D7A8D8B8D9C8D20E030E040E251E43C
:102000000E941F02DC01CB01BC01CD010E944900EE
:10201000DC01CB019C8B8B8B0FC088EC90E09A8B02
:10202000898B89899A890197F1F79A8B898B8B899A
:102030009C8901979C8B8B8B8B899C89009769F776
:1020400014C06D897E898F89988D0E944900DC01BA
:10205000CB019C8B8B8B8B899C89988B8F878F85F1
:1020600098890197F1F7988B8F8781E062E040E0D3
:102070000E944C0A80E090E0A0E8BFE38B879C8739
:10208000AD87BE876B857C858D859E8520E030E0A1
:102090004AEF54E40E941F02DC01CB018F83988732
:1020A000A987BA876F81788589859A8520E030E095
:1020B00040E85FE30E94790388232CF481E090E0FC
:1020C0009E838D833FC06F81788589859A8520E0C6
:1020D0003FEF4FE757E40E94190318164CF56B8544
:1020E0007C858D859E8520E030E040E251E40E94B1
:1020F0001F02DC01CB01BC01CD010E944900DC01C3
:10210000CB019E838D830FC088EC90E09C838B83F2
:102110008B819C810197F1F79C838B838D819E81BC
:1021200001979E838D838D819E81009769F714C0EE
:102130006F81788589859A850E944900DC01CB01F1
:102140009E838D838D819E819A83898389819A81E3
:102150000197F1F79A838983E9960FB6F894DEBF69
:102160000FBECDBFCF91DF910895DF93CF93CDB751
:10217000DEB7E9970FB6F894DEBF0FBECDBF89AFCB
:1021800081E060E041E00E944C0A80E090E0A0E83D
:10219000BFE38DAB9EABAFABB8AF6DA97EA98FA9E6
:1021A00098AD20E030E04AEF54E40E941F02DC01C9
:1021B000CB0189AB9AABABABBCAB69A97AA98BA9B4
:1021C0009CA920E030E040E85FE30E947903882387
:1021D0002CF481E090E098AB8FA73FC069A97AA961
:1021E0008BA99CA920E03FEF4FE757E40E94190319
:1021F00018164CF56DA97EA98FA998AD20E030E0A6
:1022000040E251E40E941F02DC01CB01BC01CD0180
:102210000E944900DC01CB0198AB8FA70FC088EC6E
:1022200090E09EA78DA78DA59EA50197F1F79EA78B
:102230008DA78FA598A9019798AB8FA78FA598A96F
:10224000009769F714C069A97AA98BA99CA90E9473
:102250004900DC01CB0198AB8FA78FA598A99CA75B
:102260008BA78BA59CA50197F1F79CA78BA781E075
:1022700062E041E00E944C0A80E090E0A0E8BFE309
:102280008FA398A7A9A7BAA76FA178A589A59AA592
:1022900020E030E04AEF54E40E941F02DC01CB0151
:1022A0008BA39CA3ADA3BEA36BA17CA18DA19EA17A
:1022B00020E030E040E85FE30E94790388232CF4BB
:1022C00081E090E09AA389A33FC06BA17CA18DA17E
:1022D0009EA120E03FEF4FE757E40E941903181634
:1022E0004CF56FA178A589A59AA520E030E040E2E1
:1022F00051E40E941F02DC01CB01BC01CD010E9410
:102300004900DC01CB019AA389A30FC088EC90E0BF
:1023100098A38F8F8F8D98A10197F1F798A38F8F36
:1023200089A19AA101979AA389A389A19AA100974B
:1023300069F714C06BA17CA18DA19EA10E944900E8
:10234000DC01CB019AA389A389A19AA19E8F8D8FCD
:102350008D8D9E8D0197F1F79E8F8D8F80E069ADF9
:102360000E94160C80E090E0A0E8BFE3898F9A8F6E
:10237000AB8FBC8F698D7A8D8B8D9C8D20E030E08A
:102380004AEF54E40E941F02DC01CB018D8B9E8B2F
:10239000AF8BB88F6D897E898F89988D20E030E072
:1023A00040E85FE30E94790388232CF481E090E009
:1023B0009C8B8B8B3FC06D897E898F89988D20E0A7
:1023C0003FEF4FE757E40E94190318164CF5698D4B
:1023D0007A8D8B8D9C8D20E030E040E251E40E94AC
:1023E0001F02DC01CB01BC01CD010E944900DC01D0
:1023F000CB019C8B8B8B0FC088EC90E09A8B898BE8
:1024000089899A890197F1F79A8B898B8B899C89A5
:1024100001979C8B8B8B8B899C89009769F714C0E3
:102420006D897E898F89988D0E944900DC01CB01DE
:102430009C8B8B8B8B899C89988B8F878F859889B8
:102440000197F1F7988B8F8781E062E040E00E946E
:102450004C0A80E090E0A0E8BFE38B879C87AD87C3
:10246000BE876B857C858D859E8520E030E04AEFB8
:1024700054E40E941F02DC01CB018F839887A98757
:10248000BA876F81788589859A8520E030E040E8B9
:102490005FE30E94790388232CF481E090E09E831F
:1024A0008D833FC06F81788589859A8520E03FEFD5
:1024B0004FE757E40E94190318164CF56B857C858D
:1024C0008D859E8520E030E040E251E40E941F02AD
:1024D000DC01CB01BC01CD010E944900DC01CB0134
:1024E0009E838D830FC088EC90E09C838B838B81CF
:1024F0009C810197F1F79C838B838D819E8101974D
:102500009E838D838D819E81009769F714C06F81B2
:10251000788589859A850E944900DC01CB019E83DC
:102520008D838D819E819A83898389819A81019788
:10253000F1F79A838983E9960FB6F894DEBF0FBE50
:10254000CDBFCF91DF910895DF93CF9300D00F924D
:10255000CDB7DEB79B838A8319820EC08981282F6D
:1025600030E08A819B81FC01E20FF31F80810E9491
:10257000B51089818F5F89838981282F30E08A8116
:102580009B81FC01E20FF31F8081882339F70F90B4
:102590000F900F90CF91DF910895DF93CF9300D0EC
:1025A00000D00F92CDB7DEB78A836B838A81282F44
:1025B00030E03D832C838C819D8181309105C1F079
:1025C0002C813D81223031052CF48C819D81009736
:1025D00061F019C02C813D812230310569F08C8178
:1025E0009D818330910561F00EC08B8189830BC082
:1025F0008B81805C898307C08B81805F898303C066
:102600008B81805B8983898180680E94C60E0F90D0
:102610000F900F900F900F90CF91DF910895DF935F
:10262000CF9300D000D0CDB7DEB789836A835C83B7
:102630004B8389816A810E94CD128B819C810E948B
:10264000A4120F900F900F900F90CF91DF910895EB
:10265000DF93CF93CDB7DEB762970FB6F894DEBFA6
:102660000FBECDBF9A8B898B89899A899E012F5F76
:102670003F4FB9014AE050E00E94D015CE010196CB
:102680000E94A41262960FB6F894DEBF0FBECDBFB3
:10269000CF91DF910895DF93CF93CDB7DEB781E07F
:1026A0000E94C60ECF91DF9108951F920F920FB630
:1026B0000F9211242F933F934F935F936F937F93C8
:1026C0008F939F93AF93BF93EF93FF93DF93CF933A
:1026D000CDB7DEB78091E4009091E500009729F036
:1026E000E091E400F091E5000995CF91DF91FF9131
:1026F000EF91BF91AF919F918F917F916F915F917A
:102700004F913F912F910F900FBE0F901F901895F2
:102710001F920F920FB60F9211242F933F934F9356
:102720005F936F937F938F939F93AF93BF93EF9339
:10273000FF93DF93CF93CDB7DEB78091E400909104
:10274000E500009729F0E091E400F091E50009959B
:10275000CF91DF91FF91EF91BF91AF919F918F91B9
:102760007F916F915F914F913F912F910F900FBE8D
:102770000F901F901895DF93CF9300D000D0CDB766
:10278000DEB79A838983ACE4B0E0E981FA81808185
:10279000918111969C938E93AFE5B0E0EFE5F0E068
:1027A000808180688C93EFE4F0E08CE88083AEE475
:1027B000B0E0EEE4F0E08081982F987FE981FA8123
:1027C0008481892B8C93E981FA818581282F30E0DF
:1027D0003C832B838B819C81009731F02B813C8142
:1027E00024303105A1F038C0AFE4B0E0EFE4F0E010
:1027F0009081E981FA818581892B8C6F8C93A9E581
:10280000B0E0E9E5F0E0808184608C9325C083E04E
:1028100065E041E00E946109AEE4B0E0EEE4F0E082
:102820008081282F277EE981FA818581882F90E099
:10283000880F991F822B8C93A9E5B0E0E9E5F0E0C1
:10284000808180618C93AAE4B0E0E981FA81828181
:10285000938111969C938E930F900F900F900F90F1
:10286000CF91DF910895DF93CF93CDB7DEB7A9E580
:10287000B0E0E9E5F0E080818B7F8C93A9E5B0E0E2
:10288000E9E5F0E0808180718C93EFE4F0E0108264
:10289000EEE4F0E01082ECE4F0E011821082CF91DF
:1028A000DF910895DF93CF9300D0CDB7DEB79A8341
:1028B000898389819A819093E5008093E4000F9049
:1028C0000F90CF91DF910895DF93CF9300D000D088
:1028D000CDB7DEB79C838B831A821982EBE2F0E0DE
:1028E00082E08083EAE2F0E088E18083E0E4F0E0E7
:1028F00080E88083A0E4B0E0E0E4F0E08081282F6D
:10290000277FEB81FC818281882F90E0880F991FBF
:10291000880F991F880F991F822B8C93A0E4B0E039
:10292000E0E4F0E08081282F297FEB81FC81808129
:10293000882F90E0880F991F822B8C93A0E4B0E041
:10294000E0E4F0E08081282F2F7CEB81FC81818105
:10295000882F90E082959295907F9827807F982786
:10296000822B8C93EB81FC8183819481A581B6813C
:10297000880F991FAA1FBB1F880F991FAA1FBB1F73
:10298000880F991FAA1FBB1F9C01AD0180E092E137
:10299000AAE7B0E0BC01CD010E947715DA01C901B8
:1029A00001979A838983E0E4F0E089819A81892FF5
:1029B00099278083E9E2F0E0898180830F900F906E
:1029C0000F900F90CF91DF910895DF93CF930F92E7
:1029D000CDB7DEB78983EBE2F0E08081882F90E00D
:1029E000807290700097B9F3ECE2F0E08981808307
:1029F0000F90CF91DF910895DF93CF93CDB7DEB7DE
:102A0000EBE2F0E080818823DCF7ECE2F0E080810B
:102A1000CF91DF910895DF93CF9300D00F92CDB780
:102A2000DEB79B838A8319820EC08981282F30E00C
:102A30008A819B81FC01E20FF31F80810E94E514D3
:102A400089818F5F89838981282F30E08A819B81EA
:102A5000FC01E20FF31F8081882339F70F900F905C
:102A60000F90CF91DF9108950F931F93DF93CF9332
:102A700000D00F92CDB7DEB79B838A8319828981FC
:102A8000282F30E08A819B818C01020F131F0E9446
:102A9000FC14F80180830FC089818F5F898389814D
:102AA000282F30E08A819B818C01020F131F0E9426
:102AB000FC14F80180838981282F30E08A819B8172
:102AC000FC01E20FF31F8081833231F78981282FC7
:102AD00030E08A819B81FC01E20FF31F10820F908E
:102AE0000F900F90CF91DF911F910F910895A1E268
:102AF0001A2EAA1BBB1BFD010DC0AA1FBB1FEE1F78
:102B0000FF1FA217B307E407F50720F0A21BB30BC2
:102B1000E40BF50B661F771F881F991F1A9469F73E
:102B200060957095809590959B01AC01BD01CF019A
:102B300008952F923F924F925F926F927F928F9261
:102B40009F92AF92BF92CF92DF92EF92FF920F933C
:102B50001F93CF93DF93CDB7DEB7CA1BDB0B0FB646
:102B6000F894DEBF0FBECDBF09942A883988488803
:102B70005F846E847D848C849B84AA84B984C88499
:102B8000DF80EE80FD800C811B81AA81B981CE0F90
:102B9000D11D0FB6F894DEBF0FBECDBFED01089575
:102BA000FB019F01E8944230C4F04532B4F44A304E
:102BB00029F497FB1EF4909581959F4F642F7727FA
:102BC0000E940116805D8A330CF0895D8193CB01F0
:102BD0000097A1F716F45DE251931082C9010C949D
:102BE000F115DC01FC01672F71917723E1F7329732
:102BF00004C07C916D9370836291AE17BF07C8F3D8
:102C00000895AA1BBB1B51E107C0AA1FBB1FA61733
:102C1000B70710F0A61BB70B881F991F5A95A9F785
:0E2C200080959095BC01CD010895F894FFCFEA
:102C2E00706C7A20656E74657220706173733A00F1
:102C3E00706C7A2072652D656E746572207468658D
:102C4E000073616D6520706173733A004552524F87
:102C5E005200446F6F7220697300556E6C6F636B18
:102C6E00696E67004C6F636B696E67002B203A20AC
:102C7E004F70656E20446F6F72002D203A204368AE
:102C8E00616E6765205061737300000000000000E4
:102C9E000000030200802500000000117A040400E9
:00000001FF
