:100000000C942A000C9447000C9447000C94470071
:100010000C9447000C9447000C9447000C94760411
:100020000C9447000C944D040C9447000C9447002A
:100030000C9447000C9447000C9447000C94470024
:100040000C9447000C9447000C9447000C94470014
:100050000C94470011241FBECFE5D8E0DEBFCDBF12
:1000600010E0A0E6B0E0E2E5FBE002C005900D92F2
:10007000A03DB107D9F710E0A0EDB0E001C01D929E
:10008000A63DB107E1F70E9458010C94A7050C9416
:1000900000008091D0008F5F8093D00008950E946F
:1000A0000F0482E40E94140580E690E00E94B103F0
:1000B0001092D000FFCF0F931F93CF93DF930E9436
:1000C0000F0483E40E94140586E690E00E94B103C9
:1000D00081E060E00E94130410E0C8ECD0E00E94D0
:1000E000E202082F8A3038F48AE20E948803802FC7
:1000F0000E94140501C0115088E893E1FE01319778
:10010000F1F70197D9F71F5F153048F30E94E2021B
:100110008D3311F40E940F040E9418058093D300C0
:10012000DF91CF911F910F910895EF92FF920F935E
:100130001F93CF93DF93C8ECD0E080E2E82E8EE4EB
:10014000F82E0E940F0486E690E00E94B10381E041
:1001500060E00E94130486E40E94140510E00E94EF
:10016000E202082F8A3038F48AE20E948803802F46
:100170000E94140501C0115088E893E1FE013197F7
:10018000F1F70197D9F71F5F153048F30E94E2029B
:100190008D3389F40E940F0486E790E00E94B1033A
:1001A00081E060E00E94130487E890E00E94B103C0
:1001B0008DE30E94140581E06BE00E94130400E0CF
:1001C0000E94E202182F8A3050F48AE20E948803CB
:1001D000812F0E941405C7010197F1F701C001505A
:1001E00088E893E1FE013197F1F70197D9F70F5FA6
:1001F000053030F30E94E2028D3311F40E941405A1
:100200000E9418058093D100882349F00E940F04B2
:10021000DF91CF911F910F91FF90EF9008950E9471
:100220000F048FCF0E945B008091D300882371F46C
:100230008091D2008F5F8093D200833099F70E9423
:100240004F000E940F041092D20008951092D20025
:100250000E94950008950E945B008091D30088233E
:1002600089F48091D2008F5F8093D200833039F47B
:100270000E944F000E940F041092D20008950E9425
:10028000120108951092D2008FE40E9414050E947A
:100290000F0480E060E042E950E00E94260481E023
:1002A00060E04AE950E00E9426041092D000FFCF9F
:1002B000DF93CF93CDB7DEB72D970FB6F894DEBF9F
:1002C0000FBECDBFDE011196E9ECF0E086E00190B3
:1002D0000D928150E1F7CE0101960E94AF04DE013C
:1002E0001796E2ECF0E087E001900D928150E1F783
:1002F000CE0107960E94E20489E490E00E94AA04DD
:100300000E9431040E9495000E940F0484EA90E04C
:100310000E94B10381E060E00E94130482EB90E050
:100320000E94B1030E94E2028B3219F08D3261F714
:1003300003C00E942B01E8CF1092D2000E9412014C
:10034000E3CF683008F070C0843008F06DC08130B1
:1003500009F1813030F08230B1F1833009F064C0AE
:100360004BC0413059F42AB381E090E002C0880FBD
:10037000991F6A95E2F7282B2ABB08952AB381E0DA
:1003800090E002C0880F991F6A95E2F7809582235A
:100390008ABB0895413059F427B381E090E002C050
:1003A000880F991F6A95E2F7282B27BB089527B37A
:1003B00081E090E002C0880F991F6A95E2F780956E
:1003C000822387BB0895413059F424B381E090E043
:1003D00002C0880F991F6A95E2F7282B24BB089565
:1003E00024B381E090E002C0880F991F6A95E2F77C
:1003F0008095822384BB0895413059F421B381E074
:1004000090E002C0880F991F6A95E2F7282B21BB64
:10041000089521B381E090E002C0880F991F6A958A
:10042000E2F78095822381BB0895683008F070C0A0
:10043000843008F06DC0813009F1813030F08230B5
:10044000B1F1833009F064C04BC0413059F42BB393
:1004500081E090E002C0880F991F6A95E2F7282B8F
:100460002BBB08952BB381E090E002C0880F991F49
:100470006A95E2F7809582238BBB0895413059F449
:1004800028B381E090E002C0880F991F6A95E2F7D7
:10049000282B28BB089528B381E090E002C0880F84
:1004A000991F6A95E2F78095822388BB08954130B1
:1004B00059F425B381E090E002C0880F991F6A9536
:1004C000E2F7282B25BB089525B381E090E002C018
:1004D000880F991F6A95E2F78095822385BB08955E
:1004E000413059F422B381E090E002C0880F991F97
:1004F0006A95E2F7282B22BB089522B381E090E0B1
:1005000002C0880F991F6A95E2F78095822382BB0B
:1005100008956830D0F48430C0F4813049F08130DF
:1005200028F0823039F0833081F406C089B305C0E9
:1005300086B303C083B301C080B390E002C0959539
:1005400087956A95E2F78170089580E00895843078
:1005500080F4813049F0813028F0823039F08330E6
:1005600041F406C06ABB089567BB089564BB089553
:1005700061BB0895843080F4813049F0813028F0E7
:10058000823039F0833041F406C06BBB089568BBFC
:10059000089565BB089562BB0895843088F4813066
:1005A00049F0813028F0823039F0833049F406C0B8
:1005B00089B3089586B3089583B3089580B30895E9
:1005C00080E00895FF920F931F93CF93DF9382E013
:1005D00060E040E00E94A10182E061E040E00E9412
:1005E000A10182E062E040E00E94A10182E063E0BC
:1005F00040E00E94A10182E064E040E00E94A1018D
:1006000082E065E040E00E94A10182E066E040E017
:100610000E94A10182E067E040E00E94A10100E0A9
:10062000FF24C0E1D7E201C0F02E82E0602F41E05C
:100630000E94A10182E0602F40E00E94150210E0BC
:100640001C5F82E0612F0E948902612F6350882322
:1006500009F04BC08F2D880F880F860F883081F1ED
:10066000893080F4843021F1853038F48230D1F043
:100670008330E0F4813099F517C08630E9F0873097
:10068000E8F418C08C3021F18D3028F48A30E1F084
:100690008B30E0F417C08F30F9F08031F9F08E30F4
:1006A000F1F418C088E01BC087E019C089E017C0CA
:1006B00085E215C084E013C085E011C086E00FC05C
:1006C0008AE20DC081E00BC082E009C083E007C070
:1006D0008DE205C080E003C08DE301C08BE2DF91B5
:1006E000CF911F910F91FF900895162F643009F05C
:1006F000A7CF82E0602F40E00E94A101CE010197C8
:10070000F1F70F5F043008F48FCF00E0FF248DCFA6
:10071000FF920F931F93F82E81E060E041E00E946A
:10072000150200ED17E0C8010197F1F781E062E0E2
:1007300041E00E941502C8010197F1F780E06F2D9A
:100740000E94BA02C8010197F1F781E062E040E03F
:100750000E941502C8010197F1F71F910F91FF90B8
:1007600008951F93CF93DF93EC0110E003C00E9424
:1007700088031F5FFE01E10FF11D80818823B9F717
:10078000DF91CF911F9108950F931F93DF93CF9324
:10079000CDB7DEB760970FB6F894DEBF0FBECDBF02
:1007A0008E010F5F1F4FB8014AE050E00E946205C2
:1007B000C8010E94B10360960FB6F894DEBF0FBE69
:1007C000CDBFCF91DF911F910F910895FF920F93AD
:1007D0001F93F82E81E060E040E00E94150200EDDA
:1007E00017E0C8010197F1F781E062E041E00E9463
:1007F0001502C8010197F1F780E06F2D0E94BA023F
:10080000C8010197F1F781E062E040E00E94150223
:10081000C8010197F1F71F910F91FF90089581E0B2
:100820000E94E6030895813039F0813050F0823023
:1008300029F0833031F404C0605C03C0605F01C004
:10084000605B862F80680E94E60308950F931F93D4
:100850008A010E941304C8010E94B1031F910F91E5
:10086000089581E060E041E00E94A10181E062E042
:1008700041E00E94A10180E06FEF0E94A70280E4A6
:100880009CE90197F1F788E30E94E6038CE00E945F
:10089000E60381E00E94E60308951F920F920FB6CF
:1008A0000F9211242F933F934F935F936F937F93F6
:1008B0008F939F93AF93BF93EF93FF93E091D400F7
:1008C000F091D500309709F00995FF91EF91BF9114
:1008D000AF919F918F917F916F915F914F913F91D8
:1008E0002F910F900FBE0F901F9018951F920F928F
:1008F0000FB60F9211242F933F934F935F936F93F3
:100900007F938F939F93AF93BF93EF93FF93E09168
:10091000D400F091D500309709F00995FF91EF913F
:10092000BF91AF919F918F917F916F915F914F9107
:100930003F912F910F900FBE0F901F90189589B780
:100940008B7F89BF89B7807189BF1FBC1EBC1DBC4E
:100950001CBC08959093D5008093D4000895CF9344
:10096000DF93EC01888199819DBD8CBD8FB7806834
:100970008FBF8CE88FBD8EB5887F9C81892B8EBD03
:100980008D81882319F08430D1F407C08FB58C6F26
:100990008FBD89B7846089BF12C083E065E041E004
:1009A0000E94A1019EB58D81880F977E892B8EBDF7
:1009B00089B7806189BF8A819B819BBD8ABDDF9198
:1009C000CF910895FC0182E08BB988E18AB980E873
:1009D00080BD90B58281880F880F880F977F892B03
:1009E00080BD90B58081880F997F892B80BD90B59F
:1009F00081818295807F9F7C892B80BD238134817A
:100A00004581568183E0220F331F441F551F8A956D
:100A1000D1F760E072E18AE790E00E944005215042
:100A2000304030BD29B908955D9BFECF8CB9089543
:100A30005F9BFECF8CB1089520E004C05D9BFECF8C
:100A4000ECB92F5FFC01E20FF11DE081EE23B1F75D
:100A50000895DC015F9BFECF8CB18C9390E008C0C1
:100A60009F5F5F9BFECF8CB1FD01E90FF11D80837D
:100A7000FD01E90FF11D8081833291F71082089505
:100A8000A1E21A2EAA1BBB1BFD010DC0AA1FBB1F92
:100A9000EE1FFF1FA217B307E407F50720F0A21B04
:100AA000B30BE40BF50B661F771F881F991F1A9471
:100AB00069F760957095809590959B01AC01BD019B
:100AC000CF010895FB019F01E8944230C4F0453204
:100AD000B4F44A3029F497FB1EF4909581959F4F0A
:100AE000642F77270E949305805D8A330CF0895D1F
:100AF0008193CB010097A1F716F45DE25193108228
:100B0000C9010C948305DC01FC01672F71917723E7
:100B1000E1F7329704C07C916D9370836291AE17B8
:100B2000BF07C8F30895AA1BBB1B51E107C0AA1F4A
:100B3000BB1FA617B70710F0A61BB70B881F991F7E
:100B40005A95A9F780959095BC01CD010895F89428
:020B5000FFCFD5
:100B52004552524F5200706C7A20656E7465722055
:100B6200706173733A00706C7A2072652D656E74D1
:100B72006572207468650073616D652070617373BE
:100B82003A00446F6F7220697300556E6C6F636B2D
:100B9200696E67002B203A204F70656E20446F6F9C
:100BA20072002D203A204368616E676520506173A0
:100BB2007300030200802500000000E70305040023
:00000001FF
