:100000000C942A000C9447000C9447000C94470071
:100010000C9447000C9447000C9447000C94B303D5
:100020000C9447000C948A030C9447000C944700EE
:100030000C9447000C9447000C9447000C94470024
:100040000C9447000C9447000C9447000C94470014
:100050000C94470011241FBECFE5D8E0DEBFCDBF12
:1000600010E0A0E6B0E0ECEEF9E002C005900D92E1
:10007000A237B107D9F710E0A2E7B0E001C01D92A6
:10008000A737B107E1F70E9419010C94F4040C940E
:100090000000809173008F5F809373000895CF926A
:1000A000DF92EF92FF920F931F93DF93CF930F9204
:1000B000CDB7DEB70FEF10E080E2C82E8EE4D82E69
:1000C0007E010894E11CF11CC6010197F1F7C801FB
:1000D000B7010E94C9010E9496049981981711F0F6
:1000E000109272000F5F1F4F81E00430180761F714
:1000F000809172000E9492040F90CF91DF911F9126
:100100000F91FF90EF90DF90CF90089510927300C1
:100110000E947601809173008D3328F01092730055
:100120000E9470010895FFCFCF92DF92EF92FF926D
:100130000F931F93DF93CF93CDB7DEB72A970FB6F8
:10014000F894DEBF0FBECDBF85E0FE013196DF0122
:10015000982F1D929A95E9F79E012A5F3F4FD9018A
:100160001D928A95E9F76F018F0179010E9496042B
:10017000F80181938F01EE15FF05C1F70E949604E7
:100180008D3369F42BE0E22EF12CEC0EFD1E0E9463
:100190009604D8018D938D01AE15BF05C1F70E945D
:1001A00096048D33A1F540E020E030E08E010F5F32
:1001B0001F4FBE016A5F7F4FF801E20FF31FDB01A3
:1001C000A20FB31F90818C91981709F44F5F2F5F96
:1001D0003F4F2530310581F74530C9F40FEF10E06E
:1001E00090E4E92E9CE9F92EC7010197F1F7C801C7
:1001F000F60161916F010E940E02809372000F5F01
:100200001F4FF1E004301F0779F7813009F080E0DB
:100210000E9492042A960FB6F894DEBF0FBECDBF9F
:10022000CF91DF911F910F91FF90EF90DF90CF90D2
:100230000895DF93CF93CDB7DEB762970FB6F894EA
:10024000DEBF0FBECDBFDE011696ECE6F0E086E025
:1002500001900D928150E1F7CE0106960E94EC03C9
:10026000DE011C96E5E6F0E087E001900D928150FA
:10027000E1F7CE010C960E946004DE011196E0E6E3
:10028000F0E085E001900D928150E1F7CE010196FA
:100290000E941F0489E490E00E94E7030E94B401D9
:1002A0000E947C010E949604833469F0843418F41F
:1002B0008234C1F70BC0863419F08F3499F709C026
:1002C0000E949400EFCF0E944F00ECCF0E94860066
:1002D000E9CF81E064E60E94870110927300FFCFAE
:1002E00081E064E040E00E94B302089581E064E0B0
:1002F00041E00E94B302089581E064E041E00E9481
:100300003F0281E064E040E00E94B30208951F9341
:10031000162F813029F0813080F0823019F504C029
:1003200080E063E041E00CC080E063E040E00E94D8
:10033000B30280E064E041E008C080E063E040E0B8
:100340000E94B30280E064E040E00E94B3028FEFBD
:10035000189FC001112464E670E00E94BE04862F3D
:100360000E9480031F91089580E063E041E00E94B5
:100370003F0280E064E041E00E943F0280E063E0F1
:1003800040E00E94B30280E064E040E00E94B302DB
:100390000895EF92FF921F93CF93DF93EC017B01BF
:1003A0000E943F040E945D04883089F5CE01880FC9
:1003B000892F881F990B9195182F1E70812F806AA5
:1003C0000E9448040E945D04883109F58C2F0E9428
:1003D00048040E945D048832D1F40E943F040E94C8
:1003E0005D048031A1F4812F816A0E9448040E943B
:1003F0005D04803461F40E945604F70180830E94FA
:100400005D04883521F40E94450481E001C080E04C
:10041000DF91CF911F91FF90EF9008951F93CF939D
:10042000DF93EC01162F0E943F040E945D04883088
:1004300009F5CE0180709770880F892F881F990B5E
:100440009195806A0E9448040E945D04883191F46D
:100450008C2F0E9448040E945D04883259F4812F39
:100460000E9448040E945D04883221F40E944504E1
:1004700081E001C080E0DF91CF911F910895683045
:1004800008F070C0843008F06DC0813009F181300F
:1004900030F08230B1F1833009F064C04BC041309C
:1004A00059F42AB381E090E002C0880F991F6A9541
:1004B000E2F7282B2ABB08952AB381E090E002C01E
:1004C000880F991F6A95E2F7809582238ABB089569
:1004D000413059F427B381E090E002C0880F991FA2
:1004E0006A95E2F7282B27BB089527B381E090E0B7
:1004F00002C0880F991F6A95E2F78095822387BB17
:100500000895413059F424B381E090E002C0880F8F
:10051000991F6A95E2F7282B24BB089524B381E044
:1005200090E002C0880F991F6A95E2F780958223B8
:1005300084BB0895413059F421B381E090E002C0BA
:10054000880F991F6A95E2F7282B21BB089521B3E4
:1005500081E090E002C0880F991F6A95E2F78095CC
:10056000822381BB0895683008F070C0843008F0A1
:100570006DC0813009F1813030F08230B1F18330CB
:1005800009F064C04BC0413059F42BB381E090E0D6
:1005900002C0880F991F6A95E2F7282B2BBB08959C
:1005A0002BB381E090E002C0880F991F6A95E2F7B3
:1005B000809582238BBB0895413059F428B381E0A4
:1005C00090E002C0880F991F6A95E2F7282B28BB9C
:1005D000089528B381E090E002C0880F991F6A95C2
:1005E000E2F78095822388BB0895413059F425B302
:1005F00081E090E002C0880F991F6A95E2F7282BEE
:1006000025BB089525B381E090E002C0880F991FB3
:100610006A95E2F78095822385BB0895413059F4AD
:1006200022B381E090E002C0880F991F6A95E2F73B
:10063000282B22BB089522B381E090E002C0880FEE
:10064000991F6A95E2F78095822382BB08956830EE
:10065000D0F48430C0F4813049F0813028F0823009
:1006600039F0833081F406C089B305C086B303C076
:1006700083B301C080B390E002C0959587956A95D9
:10068000E2F78170089580E00895843080F481302D
:1006900049F0813028F0823039F0833041F406C0CF
:1006A0006ABB089567BB089564BB089561BB089554
:1006B000843080F4813049F0813028F0823039F084
:1006C000833041F406C06BBB089568BB089565BBD9
:1006D000089562BB0895843088F4813049F08130F8
:1006E00028F0823039F0833049F406C089B3089588
:1006F00086B3089583B3089580B3089580E0089584
:1007000012BE8CBF81E063E041E00E943F028AE6B6
:1007100083BF08951F920F920FB60F9211242F934B
:100720003F934F935F936F937F938F939F93AF9379
:10073000BF93EF93FF93E0917500F09176003097AF
:1007400009F00995FF91EF91BF91AF919F918F9122
:100750007F916F915F914F913F912F910F900FBEBD
:100760000F901F9018951F920F920FB60F921124A1
:100770002F933F934F935F936F937F938F939F93A9
:10078000AF93BF93EF93FF93E0917500F0917600E4
:10079000309709F00995FF91EF91BF91AF919F912B
:1007A0008F917F916F915F914F913F912F910F901A
:1007B0000FBE0F901F90189589B78B7F89BF89B79F
:1007C000807189BF1FBC1EBC1DBC1CBC08959093CA
:1007D0007600809375000895CF93DF93EC018881B4
:1007E00099819DBD8CBD8FB780688FBF8CE88FBD10
:1007F0008EB5887F9C81892B8EBD8D81882319F0D1
:100800008430D1F407C08FB58C6F8FBD89B78460F9
:1008100089BF12C083E065E041E00E943F029EB5BF
:100820008D81880F977E892B8EBD89B7806189BFA6
:100830008A819B819BBD8ABDDF91CF9108950F93E3
:100840001F938C01FC01218132814381548160E03E
:1008500072E18AE790E00E94D2042051304040408B
:100860005040569547953795279520B911B8F8010E
:10087000808182B984E086BF1F910F91089584EA38
:1008800086BF06B607FEFDCF089584E986BF0895AA
:1008900083B984E886BF06B607FEFDCF089584ECD1
:1008A00086BF06B607FEFDCF83B1089584E886BFF4
:1008B00006B607FEFDCF83B1089581B1887F089504
:1008C000FC0182E08BB988E18AB980E880BD90B5EF
:1008D0008281880F880F880F977F892B80BD90B504
:1008E0008081880F997F892B80BD90B58181829509
:1008F000807F9F7C892B80BD2381348145815681F7
:1009000083E0220F331F441F551F8A95D1F760E003
:1009100072E18AE790E00E94D2042150304030BD5D
:1009200029B908955D9BFECF8CB908955F9BFECFDA
:100930008CB1089520E004C05D9BFECFECB92F5F21
:10094000FC01E20FF11DE081EE23B1F70895DC0117
:100950005F9BFECF8CB18C9390E008C09F5F5F9B44
:10096000FECF8CB1FD01E90FF11D8083FD01E90F80
:10097000F11D8081833291F710820895AA1BBB1B61
:1009800051E107C0AA1FBB1FA617B70710F0A61B8F
:10099000B70B881F991F5A95A9F780959095BC01B0
:1009A000CD010895A1E21A2EAA1BBB1BFD010DC0AB
:1009B000AA1FBB1FEE1FFF1FA217B307E407F5070F
:1009C00020F0A21BB30BE40BF50B661F771F881FEB
:1009D000991F1A9469F760957095809590959B0181
:0C09E000AC01BD01CF010895F894FFCFD9
:1009EC0002801A0600030200802500000000117A24
:0209FC000404F1
:00000001FF
